:020000040000fa
:080000000002040000000000f2
:020000040000fa
:10000800c6050000c6050000c6050000c6050000bc
:10001800c6050000c6050000c6050000c6050000ac
:10002800c6050000c6050000c605000094020000d1
:10003800c6050000c6050000c6050000c60500008c
:10004800c6050000c6050000c6050000c60500007c
:10005800c6050000c6050000c6050000c60500006c
:10006800c6050000c6050000c60500002003000004
:10007800c6050000c6050000c6050000c60500004c
:10008800c6050000c6050000c6050000c60500003c
:10009800c6050000c605000022050000c6050000d0
:1000a800c6050000c6050000c6050000c60500001c
:1000b800c6050000c6050000c6050000c60500000c
:1000c800c6050000c6050000c6050000c6050000fc
:1000d800c6050000c6050000c6050000c6050000ec
:1000e800c6050000c6050000c6050000c6050000dc
:1000f800c6050000c6050000c6050000c6050000cc
:10010800c6050000c6050000c6050000c6050000bb
:10011800c6050000c6050000c6050000c6050000ab
:10012800c6050000c6050000c6050000c60500009b
:10013800c6050000c6050000c6050000c60500008b
:10014800c6050000c6050000c6050000c60500007b
:10015800c6050000c6050000c6050000c60500006b
:10016800c6050000c6050000c6050000c60500005b
:10017800c6050000c6050000c6050000c60500004b
:10018800c6050000c6050000c6050000c60500003b
:10019800c6050000c6050000c6050000c60500002b
:1001a800c6050000c6050000c6050000c60500001b
:1001b800c6050000c6050000c6050000c60500000b
:1001c800c6050000c6050000c6050000c6050000fb
:1001d800c6050000c6050000c6050000c6050000eb
:1001e800c6050000c6050000c6050000c6050000db
:0801f800c6050000c605000069
:020000040000fa
:10020800c6050000c6050000c6050000c6050000ba
:10021800c6050000c6050000c6050000c6050000aa
:10022800c6050000c6050000c605000094020000cf
:10023800c6050000c6050000c6050000c60500008a
:10024800c6050000c6050000c6050000c60500007a
:10025800c6050000c6050000c6050000c60500006a
:10026800c6050000c6050000c60500002003000002
:10027800c6050000c6050000c6050000c60500004a
:10028800c6050000c6050000c6050000c60500003a
:10029800c6050000c605000022050000c6050000ce
:1002a800c6050000c6050000c6050000c60500001a
:1002b800c6050000c6050000c6050000c60500000a
:1002c800c6050000c6050000c6050000c6050000fa
:1002d800c6050000c6050000c6050000c6050000ea
:1002e800c6050000c6050000c6050000c6050000da
:1002f800c6050000c6050000c6050000c6050000ca
:10030800c6050000c6050000c6050000c6050000b9
:10031800c6050000c6050000c6050000c6050000a9
:10032800c6050000c6050000c6050000c605000099
:10033800c6050000c6050000c6050000c605000089
:10034800c6050000c6050000c6050000c605000079
:10035800c6050000c6050000c6050000c605000069
:10036800c6050000c6050000c6050000c605000059
:10037800c6050000c6050000c6050000c605000049
:10038800c6050000c6050000c6050000c605000039
:10039800c6050000c6050000c6050000c605000029
:1003a800c6050000c6050000c6050000c605000019
:1003b800c6050000c6050000c6050000c605000009
:1003c800c6050000c6050000c6050000c6050000f9
:1003d800c6050000c6050000c6050000c6050000e9
:1003e800c6050000c6050000c6050000c6050000d9
:0803f800c6050000c605000067
:020000040000fa
:100400002fb020000e7f22000e01880000000000a7
:1004100000012000200288000c000700003e22009e
:100420000100200011000700000020000000e00093
:10043000020032000000020000000000620402001e
:10044000000000000040da000000fe004440a90067
:10045000000120000000e000030032000000200046
:10046000a00188004440a800000006009101880017
:10047000800078000000eb0015003700e2804000ab
:1004800032a0b4009101ba00e280400032a0b40072
:100490009102ba00e280400032a0b4000002eb00fa
:1004a000472bde00f507b200602ce10004003a00a3
:1004b0000059eb008301e900fdff3e000400370016
:1004c0006128e100010032000082eb000400070017
:1004d0001101ba000200e000e8ff3a000000060047
:1004e0003159ba008301e9000c0032002159ba00e9
:1004f0008301e900080032000400e00003003a0034
:10050000e280400032a0b400f5ff370011d9ba00f4
:100510008301e900faff3a008100e800e180400031
:1005200032a0b40000000600801f7800841f78000d
:100530003400f80000002000a00188000000fa004c
:1005400014c0b3000440780000e8b7008460a9003c
:100550000080fa003400f9004f0278004f00780064
:10056000004006000400fa00008fbe000002eb000d
:100570003408880000000000340880006123b800bf
:100580001e02be00cc28dd004422de000482700082
:10059000c42ade00840f5300858f5b00f6ff39000c
:1005a0000080fa00000006000400fa00008fbe0080
:1005b0000002eb00340888000000000034088000ce
:1005c0006123b8001e00be00460add00ca02de003c
:1005d000850272004602dd00840f5300858f5b00a8
:1005e000f6ff39000080fa00000006000000fa0063
:1005f0000002eb000408880044422f001408880021
:100600002405800004c0a10004d0a10004e0a000e3
:10061000240588008460a9009460a80004032800d1
:10062000240888000080fa00000006000000fa009c
:1006300004032800840888000080fa0000000600f7
:10064000801f7800849fbe003400f8000000200066
:10065000a00188000000fa00a51680000404200014
:1006600004826200e00f520004003a0014c0b3009c
:100670000440780001e8b70011003700a51680009b
:100680000408200004826200e00f520004003a00d7
:1006900014c0b3000440780002e8b7000800370037
:1006a000a51680000400220004826200e00f5200c0
:1006b00003003a0014c0b3000440780003e8b70018
:1006c0008660a9000080fa003400f9004f02be00e5
:1006d0004f007800004006000000fa00640580002a
:1006e00004c0a10004d0a10004e0a00064058800bb
:1006f0008660a9009660a80061e0a8006200a800da
:100700006260a8000080fa00000006000000fa0005
:10071000000000000080fa00000006000000fa005f
:100720002440800005002000360020000700200043
:10073000860f5200878f5a0005003e0004600100ba
:1007400005003700040037000300370002003700bf
:100750000000000001003700000000000080fa00e7
:10076000000006000000fa00000000000080fa000f
:10077000000006000400fa00881f78000000eb006b
:10078000040107000002be00048fbe0030002000fc
:10079000f0110700000278004441880044418000c5
:1007a000050020000400be004b0107000002be004f
:1007b00032332300330524000400be008601070005
:1007c0000002be0002002c00f34724000400be001b
:1007d000fd0007000002be0054418800654188000a
:1007e000120120008000eb0060802000c50207009d
:1007f000120120008000eb0070812000c102070080
:1008000001c8b3000000eb009e1107000e00780045
:10081000ba02070000027800841f78006080200080
:10082000bf0207008f87e90060802000ab1107003e
:1008300001ccb3000000eb0092110700764180006c
:100840005441800065418000861f7800849fbe006f
:10085000043d2a00841f780070812000b002070048
:10086000e8875700708120009c11070054418000e8
:100870006541800018c0b30002002000030024007e
:100880000400be001201070000027800e00f5200d1
:1008900001003c000044eb00e04f54000600320031
:1008a000744180000402e80074418800800c20003c
:1008b000010020003cff07004f0478000080fa0090
:1008c000000006000400fa00000f780011079800ed
:1008d0000002eb00243a880081e0a80004f02f0019
:1008e000041688000002eb0014168800951680009c
:1008f000040c220004827200941688003bff07005b
:100900004aff070074ff0700251107006300070076
:1009100070fc2f008011070001003700000000006c
:1009200094ff07001480200014427800e04f52002a
:1009300012003200800c2000010020001aff070086
:1009400014168000044278006142620004c2ea008a
:10095000614262000482fb006102620016168000a0
:10096000e5ff2f00850263000482720014168800e0
:100970000042eb000440780001e8b700248020002a
:1009800014427800e04f520016003200800c200024
:100990000100200004ff0700141680000402d100ab
:1009a0006142620004c2ea00614262000482fb000c
:1009b000610262000402420016168000d5ff2f007b
:1009c00085026300048272001416880011c0b3000f
:1009d0000000eb002b1107000042eb000440780000
:1009e00002e8b7003480200014427800e04f520043
:1009f000caff3200800c200001002000eafe070040
:100a0000141680004222de006142620004c2ea0045
:100a1000614262000482fb00610262004222dd004a
:100a200016168000b5ff2f00850263000482720055
:100a3000141688000042eb000440780003e8b70079
:100a4000b7ff3700801f7800841f78003400f8005b
:100a500000002000a00188000000fa000400370018
:100a6000b4118000044278000440780030e8b700f8
:100a7000941180006102620004427800e04f52004d
:100a8000f7ff3a0087c0a9000080fa003400f9009f
:100a90004f0278004f007800004006000000fa0086
:100aa000842020008411880024022000c4118800c2
:100ab000044020009411880097e0a90097c0a80086
:100ac000940580000480a1000490a10004a0a0006f
:100ad000940588009405800004c0a10004d0a10002
:100ae00004e0a1009405880087c0a90087e0a90060
:100af000842028008411880004402000941188007c
:100b00000080fa00000006000400fa00000f7800e0
:100b1000214798000483200014427800e04f5200df
:100b20000900320004832000144278009e027800fd
:100b3000844a78000042eb000440780030e8b700b7
:100b400014c0b300010037000042eb0004407800fd
:100b50000080fa00000006000200fa00004f780052
:100b60000000000095118000042020000482620033
:100b7000e00f5200fbff3a009e4278000582fb0026
:100b8000a41188000080fa00000006000040da008e
:100b90000000fe000002780085088000e08f52000f
:100ba000030035001061a800000028001021b700e4
:100bb0003008800041088000e00f52000100320040
:100bc000008abe0000000600889fbe008a9fbe000b
:100bd0008c1f7800680007006f00330003866c00ec
:100be0006450e1002e0032006420e1003300320046
:100bf0006150e1002f0032006120e100310032003d
:100c000085855500eb07b00009002000080420008e
:100c1000050037000804440089844c000a003100b4
:100c20000603430087834b000001530081815b0072
:100c3000f8ff33000203be000800a00008044400cf
:100c400089844c00f6ff3900c639dd00830173004a
:100c500001003200130020008904d1000884d30071
:100c60000998a300050032000800a7000300a000b7
:100c70008904d1000884d3008b05e8008904d100e1
:100c80000884d3000001eb000281d20014000700a9
:100c900001f0a1000cf0a70001f0a0004700370010
:100ca0006420e100490032000801be000200be00dd
:100cb000f7ff37006120e100440032006000b80017
:100cc000f3ff37000000200001f82700f0ff370095
:100cd000f4ff2f00740037006011b8008d0037005a
:100ce00081002000618055000b003d000b002000ba
:100cf00061fe2f000100e1001d00340082817100bf
:100d0000610164008904d1000884d3000000e80078
:100d1000faff3a00710020006100640003007000d7
:100d2000020060000900320061044400e0844c00cd
:100d30000988a500050032008b05e8006808e1007d
:100d400002003a008904d1000884d300f20f200089
:100d50000258e10005003d00c75ddd00f907b20063
:100d60008980750008007800000006000bf8270055
:100d70008b007800000005000004be00940007000e
:100d80000003be000405be000200be009000070084
:100d9000844f7500000006000200be006450e100b0
:100da000050036006420e100020036000968a30057
:100db00001003a000800be000160a0004f06780064
:100dc0004f05be004f04be0000000600f0ff2f00dc
:100dd000f1ff2700f9ff3700889fbe008a9fbe0001
:100de0008c1f7800e4ff0700ebff330003866c00e4
:100df0006450e100240032006420e100270032004a
:100e00006150e100220032006120e1002100320047
:100e10008b854200eb07b1000134b800003ab800fe
:100e20000804420089844a00013ab8000030b80042
:100e30008880400009014a0004003300000040009f
:100e400081804800020149008b05e900c909dd00e5
:100e5000830170000100320013002000c814de007e
:100e60004814dd004709de001200b200c808de00a9
:100e7000088470009aff070001f0a1000cf0a700a1
:100e800001f0a000cdff37006120e100cfff32006c
:100e90000801be000200be00f7ff37006150e1000c
:100ea000fcff3a00c9ff3700889fbe008a9fbe0042
:100eb000841f7800b0ff07004f0078001100330056
:100ec000f0ff2f00838f6c0006003b0004056500d7
:100ed0000a00a7000800370009f0a6001000200053
:100ee00008003700820f5400838f5c000300390034
:100ef0001000200001003e000000200009f0a700c3
:100f00000000ea004f05be004f04be000000e000f4
:100f100000000600889fbe008a9fbe00008270000d
:100f20000402710004827100260032000004be0039
:100f30000200be006011b8006b092000950220007d
:100f40000182cf000a0039000541b1000082cf00c4
:100f5000070039000541b1000982cf0004003900c3
:100f60000541b1000882cf00010039000541b10000
:100f700005425200120032000a003b0082817100db
:100f8000610164008100d1000080d3008984d30016
:100f90000884d3008b05e8000442e800f7ff3a001c
:100fa000070037000804440089844c000000480012
:100fb000818048008b05e9000442e900f9ff3a000e
:100fc00047ff07004f05be004f04be0000000600ab
:100fd000c70ade00f107b200f50fb20008003200c8
:100fe000e1cf4200020032000170a00024000500a1
:100ff000810f700001003200040805004400050064
:10100000810f700002003a00140005008502e9001b
:101010000000400081c04800fcff3b000170a000c0
:101020002400050003487800000378008100fb00dd
:10103000a4002000110009008400d8008000fd00f9
:1010400005c3b30005634000e0cf50000300320049
:1010500085c0400071fb9f000000060072fb9f00ee
:101060000000060000027800e3026200d0162000b3
:101070000e003a0045062000110009000582d80044
:10108000e0162000e08f500008003a00c412b000c3
:1010900005192000110009000582d800d016200093
:1010a000e08f500001003a000000e8000000060058
:1010b000889fbe001004be00c20320000300200071
:1010c0000800be006e0b0700e0568800c203200037
:1010d000030020000800be00500a07000004be0004
:1010e000c203200003002000650b0700f0568800b3
:1010f000c2032000030020000800be00470a0700ca
:101100000004be0082012000030020005c0b0700e9
:101110000057880082012000030020000800be0064
:101120003e0a07000004be00e402400074002000f4
:10113000110009008402d800010278004457880099
:101140006904200002003700000454008904e8000c
:1011500009007800c3ff0700800f5400faff3d002c
:101160003957880062406000585788000002eb0041
:10117000e6ae200004003700050454000402e80035
:101180000080fb000000d100e6427a00854270003a
:101190008582fb00850f5400f7ff3d00245788002f
:1011a00024ae2000080ae800660052004f04be008a
:1011b000000006000400fa0044fc2f00d556800011
:1011c00004aab90030034200a0834a00e6bf9f0092
:1011d000f7bf9f0064805700b5ff07000080fa004a
:1011e00000000600889fbe008a9fbe0000047800b1
:1011f000680290006322b90025a32000ebab200019
:10120000e54d7a00048242008b02e800d44a78005f
:101210008b82e80014429000844a780009c2b3002f
:101220000502e800094a7800480290006322b900ec
:1012300085a4200064834500654b7a000482420047
:10124000e5824500d44a7800e682450014429000c9
:10125000844a78000502e800094a7800b800900046
:101260008941780009417800648042006dff0700e1
:10127000a8009000a3c3b30002c3b3006d80450073
:1012800068ff070098009000a3c3b30002c3b30037
:101290007080450063ff070098007800894178005e
:1012a00002c3b300738045005eff0700d8009000c2
:1012b0004a062000110009008a00d800f3404000cf
:1012c0008041eb00094178007680450055ff07001a
:1012d000d8009000110009008a00d800a3c0b30014
:1012e00002c3b300788045004eff07000b00780072
:1012f0004f05be004f04be0000000600adff070012
:10130000b8ff37000002780002003700015a780069
:101310000201e900e00f5100fcff3a000000060066
:101320000c00fa00889fbe0000047800f4ff27003c
:10133000d4bf9f008004eb0099bf9f0088bf9f002f
:10134000a8bf9f00240c2000b4bf9f0078815700e5
:10135000cfb0970070805700c40007000fba970005
:10136000094a78000fba9700080052004f04be00e7
:101370000080fa00000006000800fa00889fbe0006
:101380008a9fbe000084fb00d4c6b300844f500087
:10139000340036004b062000110009000b84d800f1
:1013a00081057800720040004300dd00298e200096
:1013b000008044006022b8000600200007fe2300e1
:1013c0005001be004000be00bc0a07000002be0083
:1013d0000203be0084bf9f0095bf9f00a6bf9f0071
:1013e000b7bf9f00aa002000110009008a85d8001d
:1013f00080057800e9854500c35ddd008b854400ec
:101400003b02be002b03be000fb897009fb89700a9
:101410002fb99700bfb99700a80a07000002be00c5
:101420000203be0084bf9f0095bf9f00a6bf9f0020
:10143000b7bf9f00110009000a84d800010478009a
:101440004344dd00888444003902be002903be0005
:101450000fb897009fb897002fb99700bfb99700b2
:101460001d003700ea4f500013003600aa0020008c
:10147000110009000a84d8000105780069044000c1
:101480004344dd00298e2000088444006022b80017
:101490000600200007fe23003800be002801be0021
:1014a000860a07004355dd008a8444003902be00e5
:1014b0002903be00080037004344dd00248e2000cd
:1014c000080442006022b8000600200007fe230046
:1014d0003800be002801be00780a07004f05be0094
:1014e0004f04be000080fa00000006000800fa0069
:1014f000889fbe008a9fbe00d4c6b300e04f500054
:1015000022003d000040ea000004fb00844f500030
:101510000a00340044062000110009000404d80029
:10152000a9002000110009008900d800e90040004e
:10153000c308dd002a8e200020003700ea4f50004b
:101540000f003400a4002000110009000404d8009a
:10155000690040004300dd00248e200000004200ae
:10156000430cdd00080242005403be004402be00ea
:101570005001be004000be00500a0700370037008f
:101580004344dd00248e2000310037000004fb00be
:10159000844f50002300340044062000110009004d
:1015a0000404d800a9002000110009008900d80017
:1015b000e9004000c308dd002a83200081004500c7
:1015c0003102be002103be008b0920008a85450040
:1015d0003b00be002b01be00380a07000002be001f
:1015e0000203be0084bf9f0095bf9f00a6bf9f005f
:1015f000b7bf9f00110009000904d800010478005a
:101600004344dd00080545003a02be002a03be003f
:101610000fb897009fb897002fb99700bfb99700f0
:10162000d5ff3700ea4f500007003400a400200027
:10163000110009000404d800690040004300dd00e7
:1016400024832000c5ff37004344dd0024832000ad
:10165000080442003800be002801be004f05be004d
:101660004f04be000080fa00000006002f06b00004
:10167000889fbe008a9fbe008c9fbe008e1f780090
:10168000b0af9f00d1979f00a2af9f006000b8004d
:101690006011b800a0a79f00b1a79f00c2a79f003c
:1016a000d3a79f000006eb0037073700df909700b5
:1016b0008100e800d1979f0054c2b300844f5000ce
:1016c00007003a00010278000003eb00d0c2b3002b
:1016d00001c3b30002c2b30033c2b3000700370036
:1016e0000000fb00bfa8970033070700e10f400090
:1016f000250732000c06e800230737008403780032
:10170000b4427800b8c2b30088cf52000f00320054
:1017100005003c0082cf52000a00320083cf520005
:1017200010003a000b00370080cf52000300320057
:1017300081cf52000b003a00080037000630a000ad
:10174000eeff37000600a000ecff37000610a000f7
:10175000eaff370006b0a000e8ff37000620a0002f
:10176000e6ff370062026300010032000600a100bc
:1017700068026300010032000620a1000502fb00a0
:101780000403b100e90f52000d003e00870278000b
:10179000000020006a00b9003502fb000403b1001c
:1017a00000004200850378001502fb000403b1002d
:1017b000e90f5200f7ff3600c0af9f000a00370064
:1017c0000005eb00caaf9f00a4c2b30084cf520053
:1017d00005003a00afad97004b007800abaf9f001b
:1017e000c0af9f008703e800e4c2b300974f120028
:1017f00019003a00860678000de0a000644252000d
:10180000d74f120003003200070378000007eb00f7
:101810000b003700afa8970041077800a1af9f00e9
:101820008703e8000700780076c6b30007c7b30057
:10183000c1c6b3000c0037006a70b900000742004f
:10184000860378003602fb000403b100e90f520062
:10185000f9ff3600f3ff3700860678000dc0a000c0
:101860000007eb00efff3700b0427800d0979f00f1
:1018700086cf52003000320017003c0034c6b3005f
:1018800084cf5200900032000e003c007c42520097
:1018900084cf52003b00320006003c00e0cf5200f3
:1018a000be06320004c2e90084cf5200a5003a000f
:1018b0003000370084c5b30084cf5200a1003a0045
:1018c0003700370054c6b30084cf52001c003200ea
:1018d00025003c001c00370087cf5200300032004a
:1018e00009003c0081cf520019003200f4c6b30059
:1018f00084cf5200270032006642520084cf52004b
:1019000090003a001000370054c7b30084cf520053
:10191000930032006342420084cf52000400320040
:101920006542520084cf520086003a002000370002
:10193000a5579f001c003700a6579f0013003700d3
:10194000a5579f000d003700a5579f008600370060
:10195000f08266000401200001003200040028002b
:1019600084867600c0ff3700a5579f000da0a00019
:101970007d003700a5579f000d50a0000d80a000ee
:1019800079003700a5579f000d50a0000d90a000d2
:1019900075003700a5579f000d60a000720037004a
:1019a000a5579f000d50a0000d70a0006e003700dd
:1019b000a5579f00afa9970043027800a3af9f00ef
:1019c000d4af9f00e00f520002003a0006a92000a9
:1019d000d6af9f005fab97008002eb00010037009d
:1019e0008502e80066c27a00e04f5200fcff3a0030
:1019f000e5af9f00e00f570005003200efab970006
:101a0000870f5700020031000e047800e8af9f00f6
:101a10006faa97000004eb00cfac9700848f5400ae
:101a20000100360004845400e886660014003a0081
:101a300007003700bfa89700000220005e060700dd
:101a4000e10f4000010032000c06e8000804e90044
:101a5000e00f5400f7ff3a000084eb000800370065
:101a60005faa97003400fb00d4af9f00bfa8970087
:101a700051060700e10f4000010032000c06e800ab
:101a80006faa97000405e900eaaf9f00e00f52003b
:101a9000f3ff3a00e08f56003b06320007003700a4
:101aa000bfa897000002200043060700e10f400096
:101ab000010032000c06e8000804e900e00f5400c1
:101ac000f7ff3a0030063700afad97004b027800c1
:101ad000abaf9f0004047800cfc4de000905780096
:101ae0008a0578000800be000a01be004800de003a
:101af000480add0000007200a0579f007082660057
:101b000009003200e04f500007003200e14f400072
:101b100005003200b0579f00c8579f0025002000e5
:101b2000e5af9f0003003700b8579f001600200064
:101b3000e6af9f0037f92f0087834700d7af9f009c
:101b4000acff3700a5579f0028f92f0008844700f5
:101b5000d8af9f0019002000e9af9f00a5ff370014
:101b6000a5579f000d0cb30004702000048266008e
:101b700041043200040021000482660001003200aa
:101b80006e00200070826600050032002fa89700ca
:101b90004005be004004be00a0af9f000600370015
:101ba0002fa997004200be00a2af9f00f4070700d4
:101bb0000004be000205be006022b8006033b80019
:101bc0000800be000a01be0030070700e00f500009
:101bd00002003d000bf0a2003d00b3000002eb004c
:101be000b48f9f006022b8006033b8000800be00c8
:101bf0000a01be0098070700e00f500034003200d1
:101c00000800be000a01be002309070062f92f0088
:101c10000f0141007d0807003f8897000000e900a0
:101c20006300b900a4002000110009000400d800de
:101c3000b08f9f00e00f500002003d000000e9005f
:101c4000b08f9f00bf899700d3af9f000340ea0089
:101c500026fe07000802be000a03be009708070020
:101c60000002be000203be00a4a79f00b5a79f000c
:101c7000c6a79f00d7a79f006022b80006002000db
:101c800007ff230001070700e00f500003003d009d
:101c9000dfaa97000502e9000c0037006022b800b7
:101ca00006002000470224002fa09700bfa0970045
:101cb0004fa19700dfa19700f9060700e00f500041
:101cc000030035005fab97000602e800b48f9f0069
:101cd000bf8b9700d7af9f000d0278000410b200b1
:101ce00008003a000d0278000420b20062023200bf
:101cf00007007800e40f4000020035008e0f50000e
:101d0000ef013500e00f5700040032000d027800ab
:101d10000420b200010032000e07e900f20f570064
:101d20000300360024c1b300a4579f000100370010
:101d3000ae579f006022b8006033b8000800be00b4
:101d40000a01be0044070700e00f500066003200a1
:101d50002f519700c2cf9f00afd9970002c051000a
:101d6000e2fd07000002be000203be000800be0044
:101d70000a01be00cf0607000004be000205be0037
:101d8000cf0707001f0807000002be000203be00c5
:101d90000800be000a01be00bd0807006022b800ae
:101da0000600200007fe2300bd060700e00f5000dc
:101db000080035006022b8000600200007fe23005e
:101dc0000800be000a01be00330607000004be0082
:101dd0000205be000800be000a01be00b8070700e9
:101de000e09f9f00f19f9f008002eb0085a79f006e
:101df0000003eb0096a79f00cfcb97008703fb0063
:101e0000c78f9f000702e8004322dd0021992000d0
:101e1000048040003002be002003be00e4a79f0003
:101e2000f5a79f0086af9f0097af9f006f98970020
:101e3000ff9897000fa197009fa197000400e10071
:101e40000588e1000690e1000798e1000c003900e8
:101e50000400200005002a009699290097fb230022
:101e60000800be000a01be00140807000004be00fe
:101e70000205be00dfa897000102e8001900370044
:101e80004f8997004312dd0023992000048241000e
:101e90005403be004402be006f989700ff9897005d
:101ea0000fa197009fa197000400e1000588e100c1
:101eb0000690e1000798e1000b0031006022b800b5
:101ec00006002000470224000800be000a01be00f0
:101ed000fa0707000004be000205be00dfa8970055
:101ee0000102e900b48f9f0004a0200084826600f4
:101ef00004202000848f520046003a00f40f57005f
:101f0000010034004e0120000800be000a01be009e
:101f10006b070700e0979f00f1979f008001eb009f
:101f2000839f9f000002eb00949f9f000800be006b
:101f30000a01be00d0af9f00e1af9f00f2af9f004b
:101f400083b79f006f949700ff9497000f9d9700b1
:101f50009f9d9700090037000e07e900a4002000ac
:101f6000050020006033b8000800be000a01be0072
:101f7000320907000205be000004be00e00f540055
:101f8000e08f5c00e00f5d00e08f5d000b00320031
:101f9000a4002000050020006033b8000800be0047
:101fa0000a01be002c090700e00f5000e08f580026
:101fb000e00f5900e08f5900e7ff3200e8979f00db
:101fc000f9979f008a9f9f009b9f9f005fac97009f
:101fd000efac97007fad97008fb597002f5097001b
:101fe0000002fb00840f57000a003d000e40500025
:101ff0003efd07000002be000203be000800be0056
:102000000a01be002b0607000004be000205be0048
:10201000ae579f00cfab9700658253000e0252006f
:10202000c4af9f00e00f570003003a000480200077
:1020300004826600030032004fa897000000e90008
:10204000c0af9f006382660003003200cfa89700f4
:102050008100e900c1af9f00648266002c0032005d
:10206000e282660061826600e08f52000600320064
:10207000b0022000e00f5200010032000080e800b2
:10208000bfa8970004003700e00f5200170032008d
:10209000bfa8970000022000c7040700e10f40001e
:1020a000120032000c06e80010003700bfa89700ad
:1020b0000003200094b79f00a5b79f00b6b79f000c
:1020c000c7b79f00bc0407001fb29700afb29700cc
:1020d0003fb39700cfb39700e10f400001003200fb
:1020e0000c06e8008904e900030037000802be007e
:1020f0000a03be00cfac9700e08f5400ebff3c001a
:10210000c9af9f000404be000605be002c003700c6
:102110006882660018003a000802be000a03be008a
:10212000cfac97000f003700bfa897000002200037
:1021300094b79f00a5b79f00b6b79f00c7b79f0091
:102140009d0407001fb29700afb297003fb39700fe
:10215000cfb39700e10f4000010032000c06e80009
:102160008904e900e08f5400efff3c00c9af9f00f5
:102170000404be000605be00e282660061826600bd
:10218000e08f520006003200b0022000e00f520043
:10219000010032000080e800bfa89700040037006b
:1021a000e00f520006003200bfa897000002200096
:1021b00081040700e10f4000010032000c06e80036
:1021c0000800be000a01be00bd060700a09f9f00d8
:1021d000b19f9f008001eb00c39f9f000002eb00b6
:1021e000d49f9f00af5297008502fb00e5a79f0098
:1021f00005037800c332dd00249920000502420067
:102200003404be002405be000802be000a03be005e
:102210002f989700bf9897004f999700df999700e4
:10222000860807000003b000bfa8970062040700fb
:10223000e10f4000010032000c06e8000802be0079
:102240000a03be002f989700bf9897004f999700f8
:10225000df99970080080700d0af9f00e1af9f0093
:10226000f2af9f0083b79f00e00f570003003a00d2
:10227000048020000482660054003200bfa897004a
:10228000e00220004c040700e10f40003300320060
:102290000c06e800310037004f889700e00f50002f
:1022a0000d003200e00f5400e08f5c00e00f5d0095
:1022b000e08f5d0008003a00d8af9f00e9af9f00b3
:1022c000faaf9f008bb79f008042eb00a5579f009d
:1022d0000004eb003b0037008502fb00c32add0051
:1022e00026992000850243003500be002501be006e
:1022f000d0af9f00e1af9f00f2af9f0083b79f0078
:102300000203be000002be000800be000a01be00bb
:102310004a0807000403200000024200bfa89700fb
:102320000400780024040700e10f4000010032009f
:102330000c06e8005faa9700efaa97007fab970012
:102340008fb397000800be000a01be0042080700d4
:102350000205be000004be00070037008d007800b3
:102360000120b200c18f9f005fac9700efac9700d7
:102370007fad97008fb597002f5297008442e900f8
:10238000a5579f00e04f5200c3ff3a00d8af9f000f
:10239000e9af9f00faaf9f008bb79f00efa29700b5
:1023a0000504570007003700bfa89700000320006e
:1023b00001040700e10f4000010032000c06e800b4
:1023c0000804e900e00f5400f7ff3a000d0278001e
:1023d0000402b20003003200bfa89700500420009e
:1023e00002003700bfa8970050062000f203070044
:1023f000e10f4000010032000c06e8003f8a970020
:10240000e00f520005003d000402ea00b48f9f0077
:10241000bfa89700d002200002003700bfa8970095
:10242000b0022000e4030700e10f40000100320089
:102430000c06e8003f8c9700a40020001100090062
:102440000404d8000003b000bfa89700da03070017
:10245000e10f4000010032000c06e800a40020005b
:10246000110009000404d80000032000010040000e
:10247000bfa89700d0030700e10f40000100320021
:102480000c06e80068826600bf0332004fab97007d
:10249000e00f5300bc03340006047800bfa8970087
:1024a00000022000c4030700e10f400001003200d9
:1024b0000c06e8000804e900f8ff3a00b203370010
:1024c000dfab9700e08f530002003d000782ea0077
:1024d000040747000800be000a01be00c705070048
:1024e000d0af9f00e1af9f00f2af9f0083b79f0086
:1024f000219920000040eb000802be000a03be0044
:10250000e4a79f00f5a79f0086af9f0097af9f00ad
:102510000c0037003102be003103be005fac9700f3
:10252000efac97007fad97008fb597000440e100b6
:1025300005c8e10006d0e10007d8e100030039003a
:102540000040e800f44f5000f2ff3a006fa49700fb
:10255000ffa497000fad97009fad97000002fb000e
:1025600004075700f80f570009003c000e407800a0
:1025700081fb07000002be000203be000800be008f
:102580000a01be00440407000004be000205be00ac
:102590000e407800d5fb07000002be000203be001b
:1025a000e4a79f00f5a79f0086af9f0097af9f000d
:1025b0005fa89700efa897007fa997008fb19700b9
:1025c000e50507000002be000203be000800be00d1
:1025d0000a01be00ae0607000002be000203be00f4
:1025e0006fa09700ffa097000fa997009fa99700e1
:1025f00032060700810507000802be000a03be007c
:10260000d4af9f00e5af9f00f6af9f0087b79f0054
:102610000205be000004be0009003700a40020002f
:10262000050020006033b8000800be000a01be00ab
:10263000820707000205be000004be000e07e90085
:10264000e00f570018003200a40020000500200011
:102650006033b8000800be000a01be007e07070014
:10266000e00f5000e08f5800e00f5900e08f590054
:10267000eaff32000c003700f80f57000e003c0054
:102680000e4078003cfb07000002be000203be00c3
:102690000800be000a01be00ff0307000004be00e0
:1026a0000205be00040037005fac9700efac970056
:1026b0007fad97008fb59700bf8a9700d5af9f0079
:1026c000e98f520012003c006022b8006033b8006d
:1026d0000800be000a01be00df040700e00f500042
:1026e0002f0032000800be000a01be0043050700ab
:1026f000e00f5000e08f5800e00f5900e08f5900c4
:1027000027003a005fab9700e10f5300240034002c
:102710000400200005002e00b6e02200170124006e
:102720002fa09700bfa097004fa19700dfa19700af
:1027300056040700e00f500003003d00dfab970098
:1027400073825300020037005fa8970072025000a6
:10275000b48f9f006f50970064fb07000002be001b
:102760000203be00a4a79f00b5a79f00c6a79f00b5
:10277000d7a79f000800be000a01be004d04070055
:102780001e050700d0af9f00e1af9f00f2af9f0092
:1027900083b79f006044b8006055b800110037004f
:1027a0000800be000a01be0014050700d0af9f005c
:1027b000e1af9f00f2af9f0083b79f00660507005f
:1027c0000002be000203be000800be000a01be00f7
:1027d0002f0607000004be000205be000002eb0049
:1027e000b48f9f00a199200010c0b3000802be0062
:1027f0000a03be00d4b79f00e5b79f00f6b79f005d
:1028000087bf9f00100037003104be003105be00b5
:10281000e8a79f00f9a79f008aaf9f009baf9f008a
:102820005faa9700efaa97007fab97008fb397003e
:102830000820e10009a8e1000ab0e1000bb8e100be
:10284000030039000040e800f44f5000eeff3a006a
:102850005fb49700efb497007fb597008fbd9700e6
:10286000a0579f003f8a9700cfaa9700048252008a
:102870008e0252000002fb0004825200c4af9f008f
:102880000480200004826600e4a79f0002003a0052
:10289000e00f5700030032004fab97000603e9003a
:1028a000c6af9f006382660003003200cfab970083
:1028b0008703e900c7af9f00648266002c003200e6
:1028c000e282660061826600e08f520006003200fc
:1028d000b0022000e00f5200010032000080e8004a
:1028e000bfa8970004003700e00f52001700320025
:1028f000bfa8970000022000af020700e10f4000d0
:10290000120032000c06e80010003700bfa8970044
:102910000003200094b79f00a5b79f00b6b79f00a3
:10292000c7b79f00a40207001fb29700afb297007d
:102930003fb39700cfb39700e10f40000100320092
:102940000c06e8008904e900030037000802be0015
:102950000a03be00cfac9700e08f5400ebff3c00b1
:10296000c9af9f000404be000605be00400037004a
:102970006882660018003a000802be000a03be0022
:10298000cfac97000f003700bfa8970000022000cf
:1029900094b79f00a5b79f00b6b79f00c7b79f0029
:1029a000850207001fb29700afb297003fb39700b0
:1029b000cfb39700e10f4000010032000c06e800a1
:1029c0008904e900e08f5400efff3c00c9af9f008d
:1029d0000404be000605be00e28266006182660055
:1029e000e08f520006003200b0022000e00f5200db
:1029f000010032000080e800bfa8970018003700ef
:102a0000e00f52001a003200bfa897000002200019
:102a1000130037008502fb00c32add002099200047
:102a2000850240005503be004502be005fa8970026
:102a3000efa897007fa997008fb197007f06070046
:102a4000a4002000050020006033b80082060700c3
:102a50000403200000024200bfa897000400780091
:102a600055020700e10f4000010032000c06e800ab
:102a70002f5297008442e900a5579f00e04f520073
:102a8000e4ff3a000802be000a03be00100037004f
:102a9000bfa897000003200094b79f00a5b79f0030
:102aa000b6b79f00c7b79f00430207001fb2970049
:102ab000afb297003fb39700cfb39700e10f40004c
:102ac000010032000c06e8008904e900b98f9f007c
:102ad000bf8c9700e08f5400edff3c000404be0063
:102ae0000605be00f20f57000300340024c1b300f6
:102af000a4579f0001003700ae579f00af529700c8
:102b00000502fb0004075700e0cf520003003a0023
:102b10006fa19700e00f510006003200bfa8970098
:102b2000e002200024020700e10f40000100320013
:102b30000c06e8002f5097006cfa07000002be0058
:102b40000203be000800be000a01be00db0407004d
:102b50002a0407000205be000004be00240037005e
:102b60008502fb00c32add00269920008502430070
:102b70003500be002501be00d0af9f00e1af9f0031
:102b8000f2af9f0083b79f000203be000002be00a9
:102b90000800be000a01be0028060700a4002000ad
:102ba000050020006033b8002b0607000403200056
:102bb00000024200bfa8970004007800fe01070051
:102bc000e10f4000010032000c06e8005faa970008
:102bd000efaa97007fab97008fb397000800be0065
:102be0000a01be001c0607000205be000004be006c
:102bf0002f5297008442e900a5579f00e04f5200f2
:102c0000d7ff3a00d8af9f00e9af9f00faaf9f000f
:102c10008bb79f0007003700bfa897000003200074
:102c2000e5010700e10f4000010032000c06e8005a
:102c30000e07e900e00f5700f7ff3a0068826600d0
:102c4000d1013200cfaa9700e08f5200ce013400ac
:102c500005047800bfa8970000022000d6010700f5
:102c6000e10f4000010032000c06e8000804e90012
:102c7000f8ff3a00c40137008d027800050cb2005d
:102c80003c003a00e08f560005003d002fa8970059
:102c90004005be004004be00a0af9f0010003700fa
:102ca00070826600130032002faa97004401be0014
:102cb000a4af9f0092979f00a3979f008402780083
:102cc000150290004fa2de00b4979f00c4979f00aa
:102cd0001f949700af9497003f959700cf9597006a
:102ce000d8af9f00e9af9f00faaf9f008bb79f005e
:102cf0000b003700afac970049027800a9af9f00e6
:102d000004007800cf80de000101780082017800a5
:102d1000d0af9f00e1af9f00f2af9f0083b79f004d
:102d20005faa9700efaa97007fab97008fb3970039
:102d3000e00f5200e08f5a00e00f5b00e08f5b0075
:102d400030003d003d00b3006022b8006033b800a1
:102d50005fac9700efac97007fad97008fb5970001
:102d60000804520089845a000a055b008b855b00c9
:102d700020003700e08f560005003d002faa970085
:102d80004401be004400be00a4af9f000d00370008
:102d9000f0826600100032002fac97004803be009e
:102da000a8af9f00d68f9f00e78f9f00f48f9f00f2
:102db00084979f005f889700ef8897007f8997002e
:102dc0008f919700d0af9f00e1af9f00f2af9f00bf
:102dd00083b79f000b003700afa89700410278002f
:102de000a1af9f0004047800090020000a00200021
:102df0000b002000d8af9f00e9af9f00faaf9f0003
:102e00008bb79f00e00f57000b003a001e00200018
:102e10005fa89700efa897007fa997008fb1970050
:102e2000e00f5000e08f5800e00f5900e08f59008c
:102e3000010032000007eb008d047800090cb2009d
:102e400004042000848f54003500320003003c004d
:102e5000e08f5400070032004b00370004082000c8
:102e6000848f540015003200040c2000848f54001d
:102e700045003a00a199200010c0b3000901780074
:102e80003102be003103be005fac9700efac97008b
:102e90007fad97008fb597000440e10005c8e100c1
:102ea00006d0e10007d8e100350039000040e80015
:102eb000f44f5000f2ff3a003100370010c0b30069
:102ec00004012000050020006033b80009017800eb
:102ed0005fac9700efac97007fad97008fb5970080
:102ee0000440e10005c8e10006d0e10007d8e10098
:102ef00023003900490020000402d0008582d2005e
:102f00000683d2008783d2008904e900faff3a00e1
:102f10000040e800f04f5000edff3a001800370085
:102f200010c0b30084002000050020006033b8000a
:102f3000090178005fac9700efac97007fad970078
:102f40008fb597000440e10005c8e10006d0e1001c
:102f500007d8e1000a003900390020000402d0003f
:102f60008582d2000683d2008783d2008904e900db
:102f7000faff3a000040e800f54f5000edff3a003c
:102f800082047800a0579f002f5597000a02fb008b
:102f90008e0f520002003d00ae579f000300370025
:102fa000840f570001003d00040778004fa89700e8
:102fb000e00f50000400320063826600020032001d
:102fc0000000e900c0af9f000400240004826600f6
:102fd00008003200cfa897008e8f50000300340005
:102fe0008e805000c1af9f00020037000001eb004f
:102ff000c2af9f00448c2000848266004408b10068
:10300000848f520006003a00cfa99700e08f51004c
:10301000100032008301e900c3af9f000d003700ac
:10302000048c2000848266000404b100848f520066
:1030300008003a004faa9700e20f52000300340044
:103040000482e900c4af9f00020037008002eb0059
:10305000c5af9f002f5397000602fb000004eb0052
:10306000cfab9700848f53000100340004845300d9
:10307000648266002d003200e28266006182660092
:10308000e08f520005003200b0022000e00f520035
:10309000170032000080e80015003700e00f5200f2
:1030a00003003200bfa89700000220001100370083
:1030b000048c2000848266000404b100848f5200d6
:1030c00010003a00bfa8970000032000ba000700d4
:1030d000e10f4000010032000c06e8000d0278000c
:1030e0000402b200800720000100320080052000a9
:1030f000bfa89700b0000700e10f400001003200b8
:103100000c06e800e00f54008d003200bfa89700c5
:1031100000032000a8000700e10f4000010032007a
:103120000c06e8000804e900f6ff3700e00f540041
:103130000a0032006882660008003a00bfa89700c3
:10314000000220009c000700e10f40000100320057
:103150000c06e8000804e900f8ff3a00e282660085
:1031600061826600e08f520006003200b00220004b
:10317000e00f5200010032000080e800bfa8970075
:1031800004003700e00f520006003200bfa897008d
:103190000002200088000700e10f4000010032001b
:1031a0000c06e800048c2000848266000408b1004c
:1031b000848f520003003a00bfa89700000320004c
:1031c0000f00370004882000848f52005c003a0012
:1031d000bfa897000003200077000700e10f400020
:1031e000010032000c06e8000d0278000402b20073
:1031f000800720000100320080052000bfa8970052
:103200006d000700e10f40004d0032000c06e800a1
:103210004b0037000e07e9008a8f5400300032005f
:1032200003003c00e08f5400070032003c003700f0
:1032300004082000848f540014003200040c200085
:10324000848f540036003a004372dd002b99200031
:103250000b0242005403be004402be005fa8970068
:10326000efa897007fa997008fb19700730407001c
:10327000a4002000050020006033b8007604070099
:1032800004c3b3000442400024003700f4a7200028
:10329000cfaa9700e08f520001003200e4a6200080
:1032a000c272dd005fa89700efa897007fa9970082
:1032b0008fb197008502e900050033008301d1003a
:1032c0000281d3008180d3000080d300f9ff370052
:1032d0006f00600064407800a0579f001000370026
:1032e0006372b9005fa89700efa897007fa99700c5
:1032f0008fb19700840578008b05e9000500330045
:103300008301d1000281d3008180d3000080d300eb
:10331000f9ff3700674260000443b000a4579f00e4
:10332000af5097000100fb00bfa8970022000700e4
:10333000e10f4000060032000c06e80004003700f0
:103340000a0420000d0178000202b200c2af9f0003
:10335000e00f5700afff3a00688266000a003200b3
:10336000e00f540008003400bfa8970000022000be
:1033700011000700e10f4000010032000c06e800d8
:103380000804e900f8ff3a00df9197001340780045
:10339000a0579f00e04f5000c4f83a000c0078009e
:1033a0004f0778004f06be004f05be004f04be0019
:1033b0002f06b10000000600889fbe0001047800bf
:1033c00038029000e20262008084eb003b00320091
:1033d000040378000620b2009802900002003a0030
:1033e000e08f520035003a000490a00034049800a9
:1033f00080047800f90fb200e08f520002003a001a
:10340000a8029000050c7800ea8f540005003a00ed
:103410000408b20003003a0088007800d0002000c1
:10342000e5ff070018029000d8029000850f5200b7
:103430000b0032000402e80014049800180278001f
:10344000094a7800040ce80015c0b300a4af2000be
:10345000054a7800ea8f540018003a00050037004a
:103460008800780009407800170007008004780081
:1034700012003700380290000410b2000f00320032
:1034800018019000a800900048009000520007002a
:1034900018029000840f500004003200380290009f
:1034a0000403b300340498008084eb000002eb00b6
:1034b0001404980028029000040c78000900780099
:1034c0004f04be00000006000200fa00889fbe0004
:1034d000a0ff9f0001047800380290008402780069
:1034e0000504b200020032000000fb003500370086
:1034f000e202620005003a000403b30034049800bd
:10350000150498000080eb002e003700d8049000ce
:10351000e08f540006003a0012002000e6805700b9
:10352000480090002c000700190498002300370081
:10353000a8029000e08f520008003a00d5af2000aa
:1035400025049800050c78002500200055049800fb
:10355000150498000430a00034049800180190006d
:10356000a8009000480090001b000700280290006f
:103570008082eb0015049800affa9700054a7800a6
:10358000040ce8002ffa9700ea4f52000b003a00b3
:10359000380290000410b2000800320018019000b8
:1035a000a8009000480090000b0007000002eb000c
:1035b00014049800a8029000050c78002ffa9700d8
:1035c0000400fb004f04be000080fa00000006006b
:1035d00000c0da00000006000a00fa00e20f500006
:1035e00022003e0004588000e10f52000600320025
:1035f00087232000462320002423200005232000c9
:10360000e08f530004003a00872220004622200069
:103610002422200005222000000028001500600060
:1036200003003a00800b780007002800958a730099
:10363000054020009482620001003a0014a0a0001e
:103640008202780006003700940378000710b20069
:10365000fdff3200b103fb00070b78008502e90093
:10366000e08f5200f8ff3a000800370034002000d5
:10367000b4bf9f00c0bf9f00d1bf9f00e2bf9f00ab
:103680006a805700d2ff07006fb9970002007800e8
:103690000080fa00000006002800fa00889fbe00a3
:1036a0008a9fbe008c9fbe0007067800878669004f
:1036b0000c003b00030478008704780008f0a100a8
:1036c00009f0a100840f5000858f5800860f590023
:1036d000890f5c00030033000cf0a20001003a00e7
:1036e0000cf0a1000d0107006400e1005f00320052
:1036f000780147006408e100610032006c01470076
:10370000748557003200be001201be003a04be00ac
:103710001a05be001e039000be0a900085035300e8
:1037200006003d000004fd008104fd000205fd00cf
:103730008305fd008703ea00050378000df8a30068
:103740000400320060041400e0841c0060051d00c9
:10375000e0851d006022b8007d0320000d38e100e7
:103760008006eb000b0039004433dd00f300b200ab
:103770008301730039003700848272000d027800e3
:10378000e10664008b85d1000a85d3008984d300cb
:103790000884d3008703e900f7ff3b0008004000de
:1037a000898048000a0149008b81490004003b00e0
:1037b00060001000e080180060011900e08119002d
:1037c0000358a300090032008d82720084827200c7
:1037d000610260008301d1000281d3008180d300a7
:1037e0000080d3000603e8001b0037000348a30055
:1037f00017003a000600e000170034000603e90055
:103800000d00a3000000480081804800020149002b
:10381000838149000348a3000f003a000600e0003e
:10382000090034000603e9000000400081804800e0
:10383000020149008381490001003a000003eb00c6
:103840000348a300f5ff32006022b80002003700f1
:1038500084827200618266008400070003f0a10088
:103860000cf0a70003f0a000c0003700640147007f
:103870006408e10002003a000df8a300b8003a0025
:103880003200be001201be00b80037008f1fd10009
:10389000530307008f87e9000000e00000000600e6
:1038a000809feb004e0307008f87e9000000e000d7
:1038b000000006002800fa00889fbe008a9fbe0014
:1038c0008c9fbe0003866b00940007006400e1003b
:1038d000440032006408e1004a0032006100e10067
:1038e000460032006108e10049003200ec06470062
:1038f0006000b8003d02be003d03be00f4865700e4
:103900006011b8003d04be003d05be007d032000ef
:103910000b0037000000a0008d06e9001300320004
:103920000402420085824a0006034b0087834b0055
:103930000000400081804800020149008381490065
:103940000802520089825a000a035b008b835b00e5
:10395000f0ff3b000802420089824a000a034b0044
:103960008b834b008d06e900edff3a0084827200e4
:1039700086827200f707b20087827200010032006f
:10398000150020001e0490003e0b9000060354001a
:10399000e63fb0000368a300070032000000a70064
:1039a0000500a0008301d1000281d3008180d300f3
:1039b0000080d3000603e8008301d1000281d30018
:1039c0008180d3000080d3000002eb000482d2008b
:1039d0002600070003f0a1000cf0a70003f0a000f0
:1039e00062003700640247006408e1005c003200b6
:1039f0003400be003401be00f6ff37006108e1006c
:103a0000570032006011b8006000b800f1ff3700c5
:103a100003ff270002002000fbff3700839f6800a0
:103a20000100e00002003d0060001000e08018008e
:103a30000300e00002003d0060011100e081190078
:103a4000c00107004f00e00002003b0060001000d2
:103a5000e080180000000600801feb00e002070075
:103a60008f87e9000000e000000006001800200039
:103a700057002000080453000d003d000600200000
:103a800097fc2f000740e1001e0034008482720082
:103a9000610260008301d1000281d3008180d300e4
:103aa0000080d3000804e800f8ff3a004700200037
:103ab0006104600005047400040464000d00320019
:103ac00061004000e080480060014900e081490059
:103ad00003b8a500070032000603e8006538e100de
:103ae00004003a008301d1000281d3008180d30019
:103af0000080d300f87f20000830e100030035008b
:103b0000080378006000b8006011b8004433dd009d
:103b1000f300b20083017300000006006804470050
:103b20000294be000094be00fc0447008694be00d0
:103b30008494be0009007800f202070008007800b3
:103b4000f002070099007800814f70000b003b00e5
:103b50000800be00cb0207004f00b1000300370091
:103b6000f3ff2700f2ff2f006110b9004f06be00df
:103b70004f05be004f04be000080fa0000000600a2
:103b80008103780012f507000001be006000b80054
:103b90000478a30013003a006220e10015003e0003
:103ba0000d0039008301d1000281d3008180d30050
:103bb0008301d1000281d3008180d3008301d10031
:103bc0000281d3008180d3000538b000c42add0013
:103bd000f300b2008381720007f0a70003f0a00099
:103be00000000600f3ff2700f2ff2f006110b9006c
:103bf000fbff370003ff2700f7ff37001400fa0030
:103c0000889fbe008a9fbe008c9fbe000004be003d
:103c10000205be00680047000a90be000890be0082
:103c2000b80207000070a7000bf0a1000bf8a3007a
:103c300020003a009e0990000e099000fe009000be
:103c40006e0090009e029000344320008482520057
:103c5000c6ff32000a003c00b4fc2f000428e1003b
:103c6000140034008301d1000281d3008180d3008d
:103c70000080d3008502e800faff3a00bbff37005e
:103c8000b40020000428e10007003c0000004000d0
:103c90008180480002014900838149008502e900d2
:103ca000faff3a00b1ff37000300280002002000ad
:103cb000010037006011b8006000b800abff3700aa
:103cc0001400fa00889fbe008a9fbe008c9fbe0031
:103cd0000004be000205be00680047000a90be0056
:103ce0000890be00870207000070a7000bf0a1003b
:103cf0000bf8a30016003a009e029000304320000b
:103d000080825200b0fe2f000028e1000d003c0030
:103d1000b0fc2f000028e1000d0034001e099000c7
:103d20008e0890007e0090000501b0000201d100d5
:103d30008180d3000080d3008502e800fbff3a00b9
:103d40008aff3700010028000000200087ff3700ad
:103d50006000b80085ff3700889fbe0000827000b9
:103d600004027100048271002400320036432000f6
:103d7000c50020008383cf000a0039000541b1004f
:103d80008283cf00070039000541b1008183cf0055
:103d9000040039000541b1008083cf0001003900e3
:103da0000541b10085c353006022b8001200320003
:103db0000a003b0084827200610260008301d1002e
:103dc0000281d3008180d3000080d3000603e80085
:103dd0008743e800f7ff3a00070037000000400083
:103de0008180480002014900838149000603e900ff
:103df0008743e900f9ff3a001cff07004f04be00ab
:103e0000000006006011b800d3ff37001400fa006c
:103e1000889fbe008a9fbe008c9fbe00040678006b
:103e20000004be000205be00680047000a90be0004
:103e30000890be00330207006200e1000800be00e7
:103e40000a01be00040020000b003a001e02900090
:103e5000e43fb1006e009000fe0090000e0990005b
:103e60009e099000f300b20005fe230085817100d9
:103e70000bf0a70003f0a000040e78003bff370012
:103e8000811f78000100e00002003d00600010008a
:103e9000e08018000300e00002003d006001110016
:103ea000e0811900b70007004f00e00002003b006e
:103eb00060001000e0801800000006002800fa00f2
:103ec000889fbe008a9fbe008c9fbe0003866b0049
:103ed00012ff07000028a30064003a000128a30095
:103ee00067003a000008a30062003a000108a3003e
:103ef00065003a001e009000be0890008106400058
:103f0000ed3fb100f4805700ee019000111ab800a7
:103f10008e099000311bb8009e099000311cb8003a
:103f2000511db800f485570046000700fe019000bf
:103f30003a0007008b85e8003e0007008e099000dc
:103f400040000700ee019000340007008b85e80078
:103f5000380007008e099000400007009e0990007d
:103f60001b18b800890440000a854800fe01900033
:103f7000340007008b85e80038000700ee01900050
:103f8000300007008e0990001b18b800890440001b
:103f90000a8548000a98a30008003a00040242007b
:103fa00085824a0006034b0087834b0008044c00bf
:103fb00089844c000a054d008d06e9008482720058
:103fc000850273004c3add00850272000100320068
:103fd00015002000443ade001400b2004538de002f
:103fe000cb45dd000b007000c540de00cb4ddd0091
:103ff0008b8070004549de00cb55dd000b01710060
:10400000c551de000d03780098fe070003f0a10003
:104010000cf0a70003f0a000d4fe37001b18b80076
:104020008502400006834800e0834b0060044c009a
:10403000070037001b18b8000603400087834800bc
:10404000faff37001b18b8008703400008844800b7
:10405000e0844c0060054d00000006001b18b8000d
:104060000804400089844800faff37000108a300d3
:10407000bbfe3a005800be005801be00e3ff370007
:104080000008a300b6fe3a0009047800f9ff3700e3
:1040900007f0a20080fd37001400fa00889fbe00e0
:1040a0008a9fbe008c9fbe000005be000206be00b7
:1040b000680047000c90be000a90be009101070006
:1040c0006400e1001a00320016003e006100e100c9
:1040d0001a0032006e049000fe0490000e0b900057
:1040e0009e0b90006011b8009e0590000b38b10047
:1040f000d501200082817100610164008703d10035
:104100000683d3008984d3000884d3008502e900a4
:10411000f8ff3a00f2f207000df0a70001f0a0004e
:1041200092fe3700f1ff2700f0ff2f008ffe3700cf
:1041300001f8270000002000f7ff37006000b800fa
:10414000f5ff37006022b800060220000000d00012
:104150008180d2000482d2008582d2000000a000bb
:104160000202520083825a00030031000202420020
:1041700083824a000000a1000603e900f3ff3a0031
:1041800000000600efff07000400be00000006006c
:10419000889fbe008a9fbe003004be002005be007e
:1041a0000404440085844c0006054d0087854d00bd
:1041b0000898be000a90be000440e10005c8e10076
:1041c00006d0e10007d8e10002003100680040009d
:1041d0001008e8004f05be004f04be0000000600b6
:1041e0001000fa00889fbe008a9fbe000605be0030
:1041f0000404be003002be002003be00c4b79f000e
:10420000d5b79f00e6b79f00f7b79f00080252009e
:1042100089825a000a035b008b835b0084bf9f0086
:1042200095bf9f00a6bf9f00b7bf9f000498be0028
:104230000698be00110020004fb29700dfb2970031
:104240006fb39700ffb397000820e10009a8e100d1
:104250000ab0e1000bb8e100010039008000eb007a
:10426000108810004f05be004f04be000080fa0009
:10427000000006001400fa00889fbe008a9fbe005e
:104280008c9fbe003f0007000605be000404be0070
:104290000006eb00ccb79f00bcb79f00acb79f00f7
:1042a0009cb79f008cb79f000d0420004fb3970070
:1042b000bfb29700860343002fb29700e00f530070
:1042c00004003d003d0007000f004000b0ff070064
:1042d00003003700390007000f004000c0ff07004f
:1042e000cfb2970095bf9f00e08f520009003500c4
:1042f0002b00070014002000050020006033b800e8
:1043000000007200818072000201730083817300db
:104310001c0007000c06e8008d0f5600e3ff3a0072
:104320001fba9700e00f520005003d000802be00d2
:104330000a03be0000fe2f000f00400094ff07009c
:104340004faa9700e00f520008003a000fb4970000
:104350009fb497002fb59700bfb59700d8b79f00bf
:10436000e9b79f00fab79f008bbf9f000c000700c2
:104370004f06be004f05be004f04be000080fa008d
:1043800000000600010007000000060090b79f0033
:10439000a1b79f00b2b79f00c3b79f0000000600ff
:1043a00001000700000006001fb09700afb09700a3
:1043b0003fb19700cfb19700000006004f2bde0001
:1043c00087037300a7b79f004f23de00858242005a
:1043d0008502730095b79f00ffaa97004f2bde0060
:1043e000040242000402730084b79f006faa970082
:1043f0004f23de008582420085027300f5af9f00e7
:10440000e9ff07004f18de000402420000027200bc
:10441000e4af9f00e4ff07000000400081804800f7
:104420000201490083814900d8ff07000802be004d
:104430000a03be0000fe2f0000000600881f78005f
:1044400018002000881f78008aff07008f87e90086
:104450004f04780000000600801feb0085ff070076
:104460008f87e90000000600889fbe008a9fbe007b
:10447000e00f5000e08f5800e00f5900e08f590026
:104480000c003d006044b8006055b80000005400c6
:1044900081805c0002015d0083815d0018002000c6
:1044a0001500070008003d00180007000004eb009d
:1044b000050037000004eb000f00070002003d007c
:1044c0001200070018002000dcff0700e00f540076
:1044d000060032006022b8006033b80000005200cd
:1044e00081805a0002015b0083815b004f05be00a2
:1044f0004f04be0000000600e00f5200e08f5a009b
:10450000e00f5b00e08f5b00000006006044b80035
:104510006055b8000402540085825c0006035d000b
:1045200087835d0000000600889fbe008a9fbe0052
:104530008c1f7800e00f5000e08f5800e00f59000a
:10454000e08f59000d003d006044b8006055b80090
:104550000000540081805c0002015d0083815d00e9
:104560001c0020000820e10009a8e1000ab0e100d9
:104570000bb8e1000d003d00080037000006eb001d
:10458000e00f5200e08f5a00e00f5b00e08f5b000d
:1045900006003d006044b8006055b80004025400b5
:1045a00085825c0006035d0087835d00aaff07002b
:1045b000e00f5600060032006022b8006033b800f9
:1045c0000000520081805a0002015b0083815b0081
:1045d0004f0678004f05be004f04be0000000600e5
:1045e000889fbe008a9fbe008c9fbe000404be0050
:1045f0000605be00809fbe00829fbe002f00070000
:10460000040678000800be000a01be002b00070067
:10461000840678004f03be004f02be008d4f760027
:104620007fb0970013003300f0ff2f008b8f6b00db
:1046300006003b000d0666000c00a7000a003700cc
:1046400007f0a600100020000a003700880f520073
:10465000898f5a008a0f5b008b8f5b000300390043
:104660001000200001003e000000200007f0a7001d
:104670000000ea004f06be004f05be004f04be001a
:1046800000000600e48240001078a300070032001a
:10469000640240001178a3003400be001401be0083
:1046a000040032000330a700000006003500be0001
:1046b0001501be000330a0000000060005ff270022
:1046c00005826100070032000428e1000100320089
:1046d000240005000600070001003a004400050020
:1046e0000408050002000700f9ff3a001400050065
:1046f0006f82610081027000850271008502720084
:1047000000000600800078005002be005003be008a
:104710004439de00f700b200f37f2000030161009e
:10472000090032000218e10016003a00850172000b
:1047300083017300838173000008200015003a0094
:1047400040002000130037008501720083017300d0
:104750008381730005003a0004a8be0006a8be00cd
:10476000100020000b0037000201e90004024200a3
:1047700085824a0006034b0087834b000748a3004d
:10478000f9ff32000740a00004a8be0006a8be0042
:104790002000200080009800920098000000060091
:020000040000fa
:1047a000253200002e31000066200000202000008d
:1047b00020200000202000002025000064000000d0
:020000040000fa
:1047c000000800002e000000000000002e0800007d
:1047d000020000000200000000000000300800009d
:1047e0000200000000000000320a00003c0000004f
:1047f0000200000053756e004d6f6e005475650029
:10480000576564005468750046726900536174000e
:10481000004a61006e466500624d610072417000a1
:10482000724d6100794a75006e4a75006c417500e1
:1048300067536500704f6300744e6f0076446500e7
:1048400063000000da0a000014000000000000000d
:10485000be0a00001c00000000000000ee0a00007c
:104860000c000000020000001f1c1f001e1f1e0085
:104870001f1f1e001f1e1f006e0a00002a000000de
:104880000200000030313200333435003637380052
:104890003941420043444500460030003132330084
:1048a000343536003738390061626300646566006c
:1048b00000286e00756c6c00290000009209000051
:1048c000a000000002000000010000000000000045
:1048d00000000a000000000000000000006400006a
:1048e0000000000000000000e803000000000000dd
:1048f00000001000270000000000000000a086005b
:10490000010000000000000040420f000000000015
:104910000000800096980000000000000000e10008
:10492000f50500000000000000ca9a003b000000ee
:1049300000000000e40b5400020000000000e8004a
:1049400076481700000000000010a500d4e8000021
:1049500000000000a0724e00180900000000400096
:104960007a10f3005a0000000080c600a47e8d007b
:104970000300000000c16f00f28623000000000069
:104980008a5d78004563010000006400a7b3b600ab
:10499000e00d000000e889000423c7008a00000041
:1049a000320800006001000002000000000000006a
:1049b00000000000f03f00000000000000002400a4
:1049c000400000000000000000594000000000000e
:1049d000000040008f400000000000000088c3007d
:1049e00040000000000000006af8400000000000e5
:1049f000008084002e41000000000000d0126300ff
:104a00004100000000008400d79741000000000032
:104a10000065cd00cd410000000020005fa0020035
:104a20004200000000801d00af154400000000009f
:104a300040593e0029460000000000000000f00040
:104a40007f0000000000000000f07f000000000078
:104a500000000000f07f0000000000000000f000f7
:104a60007f0000000000000000f07f000000000058
:104a700000000000f07f0000000000000000f000d7
:104a80007f0000000000000000f07f000000000038
:104a900000000000f07f0000000000000000f000b7
:104aa0003f00000000a0990099b93f0000000000fd
:104ab00040e17a00843f00000000e0004d625000b9
:104ac0003f00000000e0e200361a3f000000000056
:104ad00080b5f800e43e00000000a000f7c6b0007a
:104ae0003e00000000a0f200d77a3e000000000067
:104af000e08e7900453e00000000e0000b2e110022
:104b00003e00000000e0df007cdb3d000000000014
:104b100000a19c00c73b0000000000004c48b4000e
:104b200039000000000020006ca1370000000000e8
:104b30000000000000000000000000000000000075
:104b40000000000000000000000000000000000065
:104b50000000000000000000000000000000000055
:104b60000000000000000000000000000000000045
:104b70000000000000000000000000000000000035
:104b800000000000fa0a000006000000000000001b
:104b9000980a00002600000002000000fb0a000046
:104ba00000fb0a000900000000020000fd0a0000ee
:104bb00000fd0a000e0201000000000000000000dd
:104bc000000000000602020000000000980a000039
:104bd000000b0000020000000200000001000000c5
:044be00000000000d1
:020000040000fa
:104be4000000fa00d382a900d582a8002412200074
:104bf4001413880004002800041388000080fa00bd
:104c0400000006000200fa00000f78001e0278007f
:104c14004413880000000000041380006102620055
:104c2400e00f5200fcff32004413800004007800bf
:104c34000080fa00000006000200fa00d582a900f4
:104c440050002000efff07000000eb00edff07001d
:104c540000027800040f7800d582a8001e027800b4
:104c6400040078000080fa00000006000600fa0044
:104c74002007980000000000efff07000002780002
:104c840063026200e00f5200fbff3a00d582a900e4
:104c940030002000dbff07002e02900048a2de0057
:104ca40004007800d7ff0700ae029000e40f200054
:104cb4000482620004007800d2ff07000000eb00c9
:104cc400d0ff070000027800040f78000000eb001a
:104cd400ccff07000002780014079800d582a800d2
:104ce4001e027800c822dd001e02900004824200e9
:104cf400040078000080fa00000006000000fa00ba
:104d0400d582a90060002000beff0700d582a8005c
:104d14000080fa00000006000400fa00000f78008a
:104d24001107980000000000c3ff0700000278008c
:104d340063026200e00f5200fbff3a00efff07003e
:104d4400d582a90020002000aeff07001e027800d3
:104d540048a2de0004007800aaff0700e40f200048
:104d64001e02620004007800a6ff07001e029000e5
:104d740048a2de0004007800a2ff07009e02900013
:104d8400f40f200004826200040078009dff0700f5
:104d9400d582a8000080fa00000006000000fa0096
:104da400f43b280004308800f43f200014308800cd
:104db400140020006430880000d027000100200087
:104dc400e7ed07000002eb00243088008403200094
:104dd400443088000003200001002000e0ed0700bb
:104de400c40020004430880000642000010020003a
:104df400dbed07001400200044308800006420002c
:104e040001002000d6ed0700640020004430880033
:104e14000064200001002000d1ed07000080fa00aa
:104e2400000006000400fa001007980000000000cb
:104e3400153080000400280004826200e00f520054
:104e4400fbff3a001e0290002430880044308000aa
:104e5400040f7800000000001530800004002800d2
:104e640004826200e00f5200fbff3a0044308000ed
:104e740004427800044078000080fa000000060034
:104e84000400fa00000f7800214798000000000099
:104e94000000eb00e3ff070000427800e04f5200ff
:104ea400fbff3500000000001530800004002800de
:104eb40004826200e00f5200fbff3a001e027800f9
:104ec400243088002e4290000402fb004430880005
:104ed4000080fa00000006000200fa00000f7800cb
:104ee400060037001e027800144278001e0fe80006
:104ef4008440780010002000e1ff07001e027800c3
:104f040014427800e04f5200f6ff3a000080fa00a5
:104f1400000006000200fa00000f78001e0278006c
:104f240064198800040e2000041988000002eb00b4
:104f3400841988000002eb001419880024f0210071
:104f44002419880021e3a8000080fa00000006006c
:104f54000200fa00000f78001e027800441988004d
:104f64002023a800000000000419800061026200f0
:104f7400e00f5200fcff32000418800004007800a7
:084f84000080fa0000000600a5
:020000040000fa
:020000040002f8
:04aff8001ff900003d
:020000040000fa
:020000040002f8
:04affc007f3f000093
:00000001FF
